{
  "_format": "hh-sol-artifact-1",
  "contractName": "RPSPvP",
  "sourceName": "contracts/RPSPvP.sol",
  "abi": [
    {
      "inputs": [],
      "stateMutability": "nonpayable",
      "type": "constructor"
    },
    {
      "anonymous": false,
      "inputs": [
        {
          "indexed": true,
          "internalType": "uint256",
          "name": "roomId",
          "type": "uint256"
        },
        {
          "indexed": false,
          "internalType": "address",
          "name": "winner",
          "type": "address"
        },
        {
          "indexed": false,
          "internalType": "uint256",
          "name": "reward",
          "type": "uint256"
        }
      ],
      "name": "MatchResolved",
      "type": "event"
    },
    {
      "anonymous": false,
      "inputs": [
        {
          "indexed": true,
          "internalType": "uint256",
          "name": "roomId",
          "type": "uint256"
        },
        {
          "indexed": true,
          "internalType": "address",
          "name": "player",
          "type": "address"
        },
        {
          "indexed": false,
          "internalType": "enum RPSPvP.Move",
          "name": "move",
          "type": "uint8"
        }
      ],
      "name": "MoveSubmitted",
      "type": "event"
    },
    {
      "anonymous": false,
      "inputs": [
        {
          "indexed": true,
          "internalType": "uint256",
          "name": "roomId",
          "type": "uint256"
        },
        {
          "indexed": true,
          "internalType": "address",
          "name": "player2",
          "type": "address"
        }
      ],
      "name": "PlayerJoined",
      "type": "event"
    },
    {
      "anonymous": false,
      "inputs": [
        {
          "indexed": true,
          "internalType": "uint256",
          "name": "roomId",
          "type": "uint256"
        },
        {
          "indexed": true,
          "internalType": "address",
          "name": "player1",
          "type": "address"
        },
        {
          "indexed": false,
          "internalType": "uint256",
          "name": "stake",
          "type": "uint256"
        }
      ],
      "name": "RoomCreated",
      "type": "event"
    },
    {
      "inputs": [
        {
          "internalType": "uint256",
          "name": "stake",
          "type": "uint256"
        }
      ],
      "name": "createRoom",
      "outputs": [
        {
          "internalType": "uint256",
          "name": "roomId",
          "type": "uint256"
        }
      ],
      "stateMutability": "nonpayable",
      "type": "function"
    },
    {
      "inputs": [
        {
          "internalType": "uint256",
          "name": "roomId",
          "type": "uint256"
        }
      ],
      "name": "getRoom",
      "outputs": [
        {
          "internalType": "address",
          "name": "player1",
          "type": "address"
        },
        {
          "internalType": "address",
          "name": "player2",
          "type": "address"
        },
        {
          "internalType": "enum RPSPvP.Move",
          "name": "move1",
          "type": "uint8"
        },
        {
          "internalType": "enum RPSPvP.Move",
          "name": "move2",
          "type": "uint8"
        },
        {
          "internalType": "uint256",
          "name": "stake",
          "type": "uint256"
        },
        {
          "internalType": "enum RPSPvP.RoomState",
          "name": "state",
          "type": "uint8"
        }
      ],
      "stateMutability": "view",
      "type": "function"
    },
    {
      "inputs": [
        {
          "internalType": "uint256",
          "name": "roomId",
          "type": "uint256"
        }
      ],
      "name": "joinRoom",
      "outputs": [],
      "stateMutability": "nonpayable",
      "type": "function"
    },
    {
      "inputs": [],
      "name": "owner",
      "outputs": [
        {
          "internalType": "address",
          "name": "",
          "type": "address"
        }
      ],
      "stateMutability": "view",
      "type": "function"
    },
    {
      "inputs": [],
      "name": "ownerFeePercent",
      "outputs": [
        {
          "internalType": "uint256",
          "name": "",
          "type": "uint256"
        }
      ],
      "stateMutability": "view",
      "type": "function"
    },
    {
      "inputs": [],
      "name": "roomCounter",
      "outputs": [
        {
          "internalType": "uint256",
          "name": "",
          "type": "uint256"
        }
      ],
      "stateMutability": "view",
      "type": "function"
    },
    {
      "inputs": [
        {
          "internalType": "uint256",
          "name": "",
          "type": "uint256"
        }
      ],
      "name": "rooms",
      "outputs": [
        {
          "internalType": "address",
          "name": "player1",
          "type": "address"
        },
        {
          "internalType": "address",
          "name": "player2",
          "type": "address"
        },
        {
          "internalType": "enum RPSPvP.Move",
          "name": "move1",
          "type": "uint8"
        },
        {
          "internalType": "enum RPSPvP.Move",
          "name": "move2",
          "type": "uint8"
        },
        {
          "internalType": "uint256",
          "name": "stake",
          "type": "uint256"
        },
        {
          "internalType": "enum RPSPvP.RoomState",
          "name": "state",
          "type": "uint8"
        },
        {
          "internalType": "bool",
          "name": "player1Paid",
          "type": "bool"
        },
        {
          "internalType": "bool",
          "name": "player2Paid",
          "type": "bool"
        }
      ],
      "stateMutability": "view",
      "type": "function"
    },
    {
      "inputs": [
        {
          "internalType": "uint256",
          "name": "roomId",
          "type": "uint256"
        },
        {
          "internalType": "string",
          "name": "moveStr",
          "type": "string"
        }
      ],
      "name": "submitMove",
      "outputs": [],
      "stateMutability": "payable",
      "type": "function"
    }
  ],
  "bytecode": "0x6080604052600560025534801561001557600080fd5b50600080546001600160a01b0319163317905561111f806100376000396000f3fe60806040526004361061007b5760003560e01c80638da5cb5b1161004e5780638da5cb5b146101cb578063921c45ca146102035780639cfc4b4514610219578063bbba82571461023957600080fd5b806304579cfa146100805780631bae0ac8146100955780636998de351461012b5780636d8a74cb1461014f575b600080fd5b61009361008e366004610eb1565b610259565b005b3480156100a157600080fd5b5061010e6100b0366004610f2d565b600360208190526000918252604090912080546001820154600283015492909301546001600160a01b03918216939182169260ff600160a01b8404811693600160a81b90048116928082169161010082048116916201000090041688565b604051610122989796959493929190610f80565b60405180910390f35b34801561013757600080fd5b5061014160025481565b604051908152602001610122565b34801561015b57600080fd5b506101b961016a366004610f2d565b600090815260036020819052604090912080546001820154600283015492909301546001600160a01b03918216949184169360ff600160a01b8204811694600160a81b90920481169391921690565b60405161012296959493929190610fe1565b3480156101d757600080fd5b506000546101eb906001600160a01b031681565b6040516001600160a01b039091168152602001610122565b34801561020f57600080fd5b5061014160015481565b34801561022557600080fd5b50610093610234366004610f2d565b610635565b34801561024557600080fd5b50610141610254366004610f2d565b610767565b60008381526003602052604090205483906001600160a01b031633148061029957506000818152600360205260409020600101546001600160a01b031633145b6102ea5760405162461bcd60e51b815260206004820152601960248201527f4e6f74206120706c6179657220696e207468697320726f6f6d0000000000000060448201526064015b60405180910390fd5b60008481526003602052604090206001600382015460ff16600281111561031357610313610f46565b146103605760405162461bcd60e51b815260206004820152600e60248201527f526f6f6d206e6f7420726561647900000000000000000000000000000000000060448201526064016102e1565b60006103a185858080601f01602080910402602001604051908101604052809392919081815260200183838082843760009201919091525061098d92505050565b905060008160038111156103b7576103b7610f46565b036104045760405162461bcd60e51b815260206004820152600c60248201527f496e76616c6964206d6f7665000000000000000000000000000000000000000060448201526064016102e1565b816002015434146104575760405162461bcd60e51b815260206004820152601660248201527f496e636f7272656374207374616b6520616d6f756e740000000000000000000060448201526064016102e1565b81546001600160a01b0316330361051f576003820154610100900460ff16156104c25760405162461bcd60e51b815260206004820152601660248201527f4d6f766520616c7265616479207375626d69747465640000000000000000000060448201526064016102e1565b6001820180548291907fffffffffffffffffffffff00ffffffffffffffffffffffffffffffffffffffff16600160a01b83600381111561050457610504610f46565b021790555060038201805461ff0019166101001790556105ba565b600382015462010000900460ff161561057a5760405162461bcd60e51b815260206004820152601660248201527f4d6f766520616c7265616479207375626d69747465640000000000000000000060448201526064016102e1565b60018201805482919060ff60a81b1916600160a81b8360038111156105a1576105a1610f46565b021790555060038201805462ff00001916620100001790555b336001600160a01b0316867fdf31d6d9480a495c0b6667daa4c8f92d5420a9b58cc52f19657329ba9aa8143a836040516105f49190611031565b60405180910390a36003820154610100900460ff16801561061f5750600382015462010000900460ff165b1561062d5761062d86610abc565b505050505050565b600081815260036020526040812090600382015460ff16600281111561065d5761065d610f46565b146106aa5760405162461bcd60e51b815260206004820152601260248201527f526f6f6d206e6f7420617661696c61626c65000000000000000000000000000060448201526064016102e1565b80546001600160a01b031633036107035760405162461bcd60e51b815260206004820152601d60248201527f596f752063616e6e6f74206a6f696e20796f7572206f776e20726f6f6d00000060448201526064016102e1565b6001808201805473ffffffffffffffffffffffffffffffffffffffff19163317905560038201805460ff191682800217905550604051339083907f87969bc7faf902221a147b95ceba76e011c5efb0339a0a8ee7a2bb82d9cfbbd690600090a35050565b60008082116107b85760405162461bcd60e51b815260206004820152601c60248201527f5374616b65206d7573742062652067726561746572207468616e20300000000060448201526064016102e1565b600180549060006107c883611055565b9091555050604080516101008101825233815260006020808301828152838501838152606085018490526080850188905260a0850184905260c0850184905260e08501849052600180548552600393849052959093208451815473ffffffffffffffffffffffffffffffffffffffff199081166001600160a01b039283161783559251968201805493841697909116968717815593519495909493927fffffffffffffffffffffff0000000000000000000000000000000000000000009092161790600160a01b9084908111156108a1576108a1610f46565b0217905550606082015160018201805460ff60a81b1916600160a81b8360038111156108cf576108cf610f46565b02179055506080820151816002015560a08201518160030160006101000a81548160ff0219169083600281111561090857610908610f46565b021790555060c08201516003909101805460e0909301511515620100000262ff000019921515610100029290921662ffff0019909316929092171790556001546040513391907fac131287fe8417903d89f4eb472bc1d0da81641ef725569346dab6c2879a67179061097d9086815260200190565b60405180910390a3505060015490565b600080826040516020016109a1919061106e565b6040516020818303038152906040528051906020012090506040516020016109ec907f726f636b00000000000000000000000000000000000000000000000000000000815260040190565b604051602081830303815290604052805190602001208103610a115750600192915050565b6040517f70617065720000000000000000000000000000000000000000000000000000006020820152602501604051602081830303815290604052805190602001208103610a625750600292915050565b6040517f73636973736f72730000000000000000000000000000000000000000000000006020820152602801604051602081830303815290604052805190602001208103610ab35750600392915050565b50600092915050565b60008181526003602081905260408220908101805460ff19166002908117909155808201549192918291610af0919061109d565b90506000606460025483610b04919061109d565b610b0e91906110b4565b90506000610b1c82846110d6565b6001860154909150600160a81b900460ff166003811115610b3f57610b3f610f46565b6001860154600160a01b900460ff166003811115610b5f57610b5f610f46565b03610c2657845460028601546040516001600160a01b039092169181156108fc0291906000818181858888f19350505050158015610ba1573d6000803e3d6000fd5b50600185015460028601546040516001600160a01b039092169181156108fc0291906000818181858888f19350505050158015610be2573d6000803e3d6000fd5b50604080516000808252602082015287917f15263abe612def9ba35c093a9c9cddc9144d5d09760b2d25cf8b8ace8516ebf6910160405180910390a2505050505050565b6001850154610c489060ff600160a01b8204811691600160a81b900416610e04565b15610c5f5784546001600160a01b03169350610c70565b60018501546001600160a01b031693505b6000846001600160a01b03168260405160006040518083038185875af1925050503d8060008114610cbd576040519150601f19603f3d011682016040523d82523d6000602084013e610cc2565b606091505b5050905080610d135760405162461bcd60e51b815260206004820152601660248201527f526577617264207472616e73666572206661696c65640000000000000000000060448201526064016102e1565b600080546040516001600160a01b039091169085908381818185875af1925050503d8060008114610d60576040519150601f19603f3d011682016040523d82523d6000602084013e610d65565b606091505b5050905080610db65760405162461bcd60e51b815260206004820152601960248201527f4f776e657220666565207472616e73666572206661696c65640000000000000060448201526064016102e1565b604080516001600160a01b03881681526020810185905289917f15263abe612def9ba35c093a9c9cddc9144d5d09760b2d25cf8b8ace8516ebf6910160405180910390a25050505050505050565b60006001836003811115610e1a57610e1a610f46565b148015610e3857506003826003811115610e3657610e36610f46565b145b80610e7057506002836003811115610e5257610e52610f46565b148015610e7057506001826003811115610e6e57610e6e610f46565b145b80610ea857506003836003811115610e8a57610e8a610f46565b148015610ea857506002826003811115610ea657610ea6610f46565b145b90505b92915050565b600080600060408486031215610ec657600080fd5b83359250602084013567ffffffffffffffff80821115610ee557600080fd5b818601915086601f830112610ef957600080fd5b813581811115610f0857600080fd5b876020828501011115610f1a57600080fd5b6020830194508093505050509250925092565b600060208284031215610f3f57600080fd5b5035919050565b634e487b7160e01b600052602160045260246000fd5b60048110610f6c57610f6c610f46565b9052565b60038110610f6c57610f6c610f46565b6001600160a01b038981168252881660208201526101008101610fa66040830189610f5c565b610fb36060830188610f5c565b856080830152610fc660a0830186610f70565b92151560c082015290151560e0909101529695505050505050565b6001600160a01b0387811682528616602082015260c081016110066040830187610f5c565b6110136060830186610f5c565b83608083015261102660a0830184610f70565b979650505050505050565b60208101610eab8284610f5c565b634e487b7160e01b600052601160045260246000fd5b6000600182016110675761106761103f565b5060010190565b6000825160005b8181101561108f5760208186018101518583015201611075565b506000920191825250919050565b8082028115828204841417610eab57610eab61103f565b6000826110d157634e487b7160e01b600052601260045260246000fd5b500490565b81810381811115610eab57610eab61103f56fea2646970667358221220c7c1bee5e3832427b5b762fd622e8cf5f4f80dfe678c8e0ce54b3c45bde4923664736f6c63430008160033",
  "linkReferences": {},
  "deployedLinkReferences": {}
}